{
  "contractName": "Dog",
  "abi": [
    {
      "inputs": [
        {
          "name": "_name",
          "type": "string"
        },
        {
          "name": "_descr",
          "type": "string"
        },
        {
          "name": "_weight",
          "type": "uint256"
        },
        {
          "name": "_height",
          "type": "uint256"
        },
        {
          "name": "_sex",
          "type": "uint8"
        },
        {
          "name": "_type",
          "type": "uint8"
        }
      ],
      "payable": false,
      "stateMutability": "nonpayable",
      "type": "constructor"
    },
    {
      "anonymous": false,
      "inputs": [
        {
          "indexed": false,
          "name": "from",
          "type": "string"
        },
        {
          "indexed": false,
          "name": "to",
          "type": "string"
        },
        {
          "indexed": false,
          "name": "date",
          "type": "uint256"
        }
      ],
      "name": "DogOwnerTransfered",
      "type": "event"
    },
    {
      "constant": false,
      "inputs": [
        {
          "name": "newOwner",
          "type": "address"
        },
        {
          "name": "nm",
          "type": "string"
        }
      ],
      "name": "transferOwnership",
      "outputs": [],
      "payable": false,
      "stateMutability": "nonpayable",
      "type": "function"
    },
    {
      "constant": true,
      "inputs": [
        {
          "name": "addr",
          "type": "address"
        }
      ],
      "name": "isOwner",
      "outputs": [
        {
          "name": "",
          "type": "bool"
        }
      ],
      "payable": false,
      "stateMutability": "view",
      "type": "function"
    },
    {
      "constant": true,
      "inputs": [],
      "name": "getDogInfo",
      "outputs": [
        {
          "name": "",
          "type": "address"
        },
        {
          "name": "",
          "type": "uint256"
        },
        {
          "name": "",
          "type": "string"
        },
        {
          "name": "",
          "type": "string"
        },
        {
          "name": "",
          "type": "string"
        },
        {
          "name": "",
          "type": "uint256"
        },
        {
          "name": "",
          "type": "uint256"
        },
        {
          "name": "",
          "type": "uint8"
        },
        {
          "name": "",
          "type": "uint8"
        }
      ],
      "payable": false,
      "stateMutability": "view",
      "type": "function"
    },
    {
      "constant": false,
      "inputs": [],
      "name": "dogKill",
      "outputs": [],
      "payable": false,
      "stateMutability": "nonpayable",
      "type": "function"
    }
  ],
  "bytecode": "0x608060405234801561001057600080fd5b50604051610bb2380380610bb2833981018060405281019080805182019291906020018051820192919060200180519060200190929190805190602001909291908051906020019092919080519060200190929190505050336000806101000a81548173ffffffffffffffffffffffffffffffffffffffff021916908373ffffffffffffffffffffffffffffffffffffffff1602179055504260018190555085600290805190602001906100c59291906101a4565b5084600490805190602001906100dc9291906101a4565b5083600581905550826006819055508160ff1660018111156100fa57fe5b600760006101000a81548160ff0219169083600181111561011757fe5b02179055508060ff16600281111561012b57fe5b600760016101000a81548160ff0219169083600281111561014857fe5b02179055506040805190810160405280601081526020017f436f6e7472616374204372656174657200000000000000000000000000000000815250600390805190602001906101989291906101a4565b50505050505050610249565b828054600181600116156101000203166002900490600052602060002090601f016020900481019282601f106101e557805160ff1916838001178555610213565b82800160010185558215610213579182015b828111156102125782518255916020019190600101906101f7565b5b5090506102209190610224565b5090565b61024691905b8082111561024257600081600090555060010161022a565b5090565b90565b61095a806102586000396000f300608060405260043610610062576000357c0100000000000000000000000000000000000000000000000000000000900463ffffffff1680632f54bf6e14610067578063a4fae877146100c2578063ebbc5725146100d9578063edf5a5be146102a3575b600080fd5b34801561007357600080fd5b506100a8600480360381019080803573ffffffffffffffffffffffffffffffffffffffff16906020019092919050505061032c565b604051808215151515815260200191505060405180910390f35b3480156100ce57600080fd5b506100d7610385565b005b3480156100e557600080fd5b506100ee61041a565b604051808a73ffffffffffffffffffffffffffffffffffffffff1673ffffffffffffffffffffffffffffffffffffffff1681526020018981526020018060200180602001806020018881526020018781526020018660ff1660ff1681526020018560ff1660ff16815260200184810384528b818151815260200191508051906020019080838360005b83811015610192578082015181840152602081019050610177565b50505050905090810190601f1680156101bf5780820380516001836020036101000a031916815260200191505b5084810383528a818151815260200191508051906020019080838360005b838110156101f85780820151818401526020810190506101dd565b50505050905090810190601f1680156102255780820380516001836020036101000a031916815260200191505b50848103825289818151815260200191508051906020019080838360005b8381101561025e578082015181840152602081019050610243565b50505050905090810190601f16801561028b5780820380516001836020036101000a031916815260200191505b509c5050505050505050505050505060405180910390f35b3480156102af57600080fd5b5061032a600480360381019080803573ffffffffffffffffffffffffffffffffffffffff169060200190929190803590602001908201803590602001908080601f0160208091040260200160405190810160405280939291908181526020018383808284378201915050505050509192919290505050610680565b005b60008060009054906101000a900473ffffffffffffffffffffffffffffffffffffffff1673ffffffffffffffffffffffffffffffffffffffff168273ffffffffffffffffffffffffffffffffffffffff16149050919050565b6000809054906101000a900473ffffffffffffffffffffffffffffffffffffffff1673ffffffffffffffffffffffffffffffffffffffff163373ffffffffffffffffffffffffffffffffffffffff161415156103e057600080fd5b6000809054906101000a900473ffffffffffffffffffffffffffffffffffffffff1673ffffffffffffffffffffffffffffffffffffffff16ff5b60008060608060606000806000806000809054906101000a900473ffffffffffffffffffffffffffffffffffffffff16600154600260036004600554600654600760009054906101000a900460ff16600181111561047457fe5b600760019054906101000a900460ff16600281111561048f57fe5b868054600181600116156101000203166002900480601f0160208091040260200160405190810160405280929190818152602001828054600181600116156101000203166002900480156105245780601f106104f957610100808354040283529160200191610524565b820191906000526020600020905b81548152906001019060200180831161050757829003601f168201915b50505050509650858054600181600116156101000203166002900480601f0160208091040260200160405190810160405280929190818152602001828054600181600116156101000203166002900480156105c05780601f10610595576101008083540402835291602001916105c0565b820191906000526020600020905b8154815290600101906020018083116105a357829003601f168201915b50505050509550848054600181600116156101000203166002900480601f01602080910402602001604051908101604052809291908181526020018280546001816001161561010002031660029004801561065c5780601f106106315761010080835404028352916020019161065c565b820191906000526020600020905b81548152906001019060200180831161063f57829003601f168201915b50505050509450985098509850985098509850985098509850909192939495969798565b60008060009054906101000a900473ffffffffffffffffffffffffffffffffffffffff1673ffffffffffffffffffffffffffffffffffffffff163373ffffffffffffffffffffffffffffffffffffffff161415156106dd57600080fd5b60039050826000806101000a81548173ffffffffffffffffffffffffffffffffffffffff021916908373ffffffffffffffffffffffffffffffffffffffff1602179055508160039080519060200190610737929190610889565b507f646ae7a97fc2436fb6794e640177b154a6d199a9552db8801b4cd3234e715b53816003426040518080602001806020018481526020018381038352868181546001816001161561010002031660029004815260200191508054600181600116156101000203166002900480156107f05780601f106107c5576101008083540402835291602001916107f0565b820191906000526020600020905b8154815290600101906020018083116107d357829003601f168201915b50508381038252858181546001816001161561010002031660029004815260200191508054600181600116156101000203166002900480156108735780601f1061084857610100808354040283529160200191610873565b820191906000526020600020905b81548152906001019060200180831161085657829003601f168201915b50509550505050505060405180910390a1505050565b828054600181600116156101000203166002900490600052602060002090601f016020900481019282601f106108ca57805160ff19168380011785556108f8565b828001600101855582156108f8579182015b828111156108f75782518255916020019190600101906108dc565b5b5090506109059190610909565b5090565b61092b91905b8082111561092757600081600090555060010161090f565b5090565b905600a165627a7a7230582094dbbc24ff7b25afbc51d8560d2dc7b95cc96bdf736936d9a0725accaec3058a0029",
  "source": "pragma solidity ^0.4.4;\n\n\ncontract Dog {\n  \n    enum dog_sex {male, female}\n    enum dog_type{Corgi, Shiba, Husky}\n\n    address owner;\n    uint birthday;\n    string name;\n    string adopter;\n    string description;\n    uint weight;\n    uint height;\n    dog_sex dsex;\n    dog_type dtype;\n\n    event DogOwnerTransfered(string from, string to, uint date);\n    modifier OwnerOnly {require(msg.sender == owner); _;}\n\n\n    function Dog(string _name, string _descr, uint _weight, uint _height, uint8 _sex, uint8 _type) public{\n        // constructor\n        owner = msg.sender;\n        birthday = now;\n        name = _name;\n        description = _descr;\n        weight = _weight;\n        height = _height;\n        dsex = dog_sex(_sex);\n        dtype = dog_type(_type);\n        adopter = \"Contract Creater\";\n    }\n\n        // transfer the ownership\n    function  transferOwnership (address newOwner, string nm) public OwnerOnly {\n        string former = adopter; \n        owner = newOwner;\n        adopter = nm;\n        DogOwnerTransfered(former, adopter, now);\n    }\n\n    function  isOwner(address addr) public view returns(bool) {\n        return (addr == owner);\n    }\n\n    function  getDogInfo() public view returns(address, uint, string, string, string, uint, uint, uint8, uint8) {\n        return (owner, birthday, name, adopter, description, weight, height, uint8(dsex), uint8(dtype));\n    }\n\n    function dogKill() public OwnerOnly{\n        selfdestruct(owner);\n    }\n}\n",
  "sourcePath": "/home/albert/DEV/ethereum/Decentralized_Application_Design/Truffle/DogBidding/contracts/Dog.sol",
  "compiler": {
    "name": "solc",
    "version": "0.4.23+commit.124ca40d.Emscripten.clang"
  },
  "schemaVersion": "2.0.0",
  "updatedAt": "2018-05-06T09:49:43.270Z"
}