{
  "contractName": "DogFactory",
  "abi": [
    {
      "inputs": [
        {
          "name": "dogCount",
          "type": "uint8"
        }
      ],
      "payable": false,
      "stateMutability": "nonpayable",
      "type": "constructor"
    },
    {
      "constant": false,
      "inputs": [
        {
          "name": "_name",
          "type": "string"
        },
        {
          "name": "_descr",
          "type": "string"
        },
        {
          "name": "_weight",
          "type": "uint256"
        },
        {
          "name": "_height",
          "type": "uint256"
        },
        {
          "name": "_sex",
          "type": "uint8"
        },
        {
          "name": "_type",
          "type": "uint8"
        }
      ],
      "name": "generateDog",
      "outputs": [],
      "payable": false,
      "stateMutability": "nonpayable",
      "type": "function"
    },
    {
      "constant": true,
      "inputs": [],
      "name": "getDogCount",
      "outputs": [
        {
          "name": "",
          "type": "uint256"
        }
      ],
      "payable": false,
      "stateMutability": "view",
      "type": "function"
    }
  ],
  "bytecode": "0x608060405234801561001057600080fd5b50604051602080610f3b833981018060405281019080805190602001909291905050508060ff1660018190555050610eee8061004d6000396000f30060806040526004361061004c576000357c0100000000000000000000000000000000000000000000000000000000900463ffffffff1680638988a5201461005157806389d1f84d1461007c575b600080fd5b34801561005d57600080fd5b50610066610159565b6040518082815260200191505060405180910390f35b34801561008857600080fd5b50610157600480360381019080803590602001908201803590602001908080601f0160208091040260200160405190810160405280939291908181526020018383808284378201915050505050509192919290803590602001908201803590602001908080601f01602080910402602001604051908101604052809392919081815260200183838082843782019150505050505091929192908035906020019092919080359060200190929190803560ff169060200190929190803560ff169060200190929190505050610165565b005b60008080549050905090565b6000868686868686610175610300565b8080602001806020018781526020018681526020018560ff1660ff1681526020018460ff1660ff168152602001838103835289818151815260200191508051906020019080838360005b838110156101da5780820151818401526020810190506101bf565b50505050905090810190601f1680156102075780820380516001836020036101000a031916815260200191505b50838103825288818151815260200191508051906020019080838360005b83811015610240578082015181840152602081019050610225565b50505050905090810190601f16801561026d5780820380516001836020036101000a031916815260200191505b5098505050505050505050604051809103906000f080158015610294573d6000803e3d6000fd5b5090806001815401808255809150509060018203906000526020600020016000909192909190916101000a81548173ffffffffffffffffffffffffffffffffffffffff021916908373ffffffffffffffffffffffffffffffffffffffff16021790555050505050505050565b604051610bb280610311833901905600608060405234801561001057600080fd5b50604051610bb2380380610bb2833981018060405281019080805182019291906020018051820192919060200180519060200190929190805190602001909291908051906020019092919080519060200190929190505050336000806101000a81548173ffffffffffffffffffffffffffffffffffffffff021916908373ffffffffffffffffffffffffffffffffffffffff1602179055504260018190555085600290805190602001906100c59291906101a4565b5084600490805190602001906100dc9291906101a4565b5083600581905550826006819055508160ff1660018111156100fa57fe5b600760006101000a81548160ff0219169083600181111561011757fe5b02179055508060ff16600281111561012b57fe5b600760016101000a81548160ff0219169083600281111561014857fe5b02179055506040805190810160405280601081526020017f436f6e7472616374204372656174657200000000000000000000000000000000815250600390805190602001906101989291906101a4565b50505050505050610249565b828054600181600116156101000203166002900490600052602060002090601f016020900481019282601f106101e557805160ff1916838001178555610213565b82800160010185558215610213579182015b828111156102125782518255916020019190600101906101f7565b5b5090506102209190610224565b5090565b61024691905b8082111561024257600081600090555060010161022a565b5090565b90565b61095a806102586000396000f300608060405260043610610062576000357c0100000000000000000000000000000000000000000000000000000000900463ffffffff1680632f54bf6e14610067578063a4fae877146100c2578063ebbc5725146100d9578063edf5a5be146102a3575b600080fd5b34801561007357600080fd5b506100a8600480360381019080803573ffffffffffffffffffffffffffffffffffffffff16906020019092919050505061032c565b604051808215151515815260200191505060405180910390f35b3480156100ce57600080fd5b506100d7610385565b005b3480156100e557600080fd5b506100ee61041a565b604051808a73ffffffffffffffffffffffffffffffffffffffff1673ffffffffffffffffffffffffffffffffffffffff1681526020018981526020018060200180602001806020018881526020018781526020018660ff1660ff1681526020018560ff1660ff16815260200184810384528b818151815260200191508051906020019080838360005b83811015610192578082015181840152602081019050610177565b50505050905090810190601f1680156101bf5780820380516001836020036101000a031916815260200191505b5084810383528a818151815260200191508051906020019080838360005b838110156101f85780820151818401526020810190506101dd565b50505050905090810190601f1680156102255780820380516001836020036101000a031916815260200191505b50848103825289818151815260200191508051906020019080838360005b8381101561025e578082015181840152602081019050610243565b50505050905090810190601f16801561028b5780820380516001836020036101000a031916815260200191505b509c5050505050505050505050505060405180910390f35b3480156102af57600080fd5b5061032a600480360381019080803573ffffffffffffffffffffffffffffffffffffffff169060200190929190803590602001908201803590602001908080601f0160208091040260200160405190810160405280939291908181526020018383808284378201915050505050509192919290505050610680565b005b60008060009054906101000a900473ffffffffffffffffffffffffffffffffffffffff1673ffffffffffffffffffffffffffffffffffffffff168273ffffffffffffffffffffffffffffffffffffffff16149050919050565b6000809054906101000a900473ffffffffffffffffffffffffffffffffffffffff1673ffffffffffffffffffffffffffffffffffffffff163373ffffffffffffffffffffffffffffffffffffffff161415156103e057600080fd5b6000809054906101000a900473ffffffffffffffffffffffffffffffffffffffff1673ffffffffffffffffffffffffffffffffffffffff16ff5b60008060608060606000806000806000809054906101000a900473ffffffffffffffffffffffffffffffffffffffff16600154600260036004600554600654600760009054906101000a900460ff16600181111561047457fe5b600760019054906101000a900460ff16600281111561048f57fe5b868054600181600116156101000203166002900480601f0160208091040260200160405190810160405280929190818152602001828054600181600116156101000203166002900480156105245780601f106104f957610100808354040283529160200191610524565b820191906000526020600020905b81548152906001019060200180831161050757829003601f168201915b50505050509650858054600181600116156101000203166002900480601f0160208091040260200160405190810160405280929190818152602001828054600181600116156101000203166002900480156105c05780601f10610595576101008083540402835291602001916105c0565b820191906000526020600020905b8154815290600101906020018083116105a357829003601f168201915b50505050509550848054600181600116156101000203166002900480601f01602080910402602001604051908101604052809291908181526020018280546001816001161561010002031660029004801561065c5780601f106106315761010080835404028352916020019161065c565b820191906000526020600020905b81548152906001019060200180831161063f57829003601f168201915b50505050509450985098509850985098509850985098509850909192939495969798565b60008060009054906101000a900473ffffffffffffffffffffffffffffffffffffffff1673ffffffffffffffffffffffffffffffffffffffff163373ffffffffffffffffffffffffffffffffffffffff161415156106dd57600080fd5b60039050826000806101000a81548173ffffffffffffffffffffffffffffffffffffffff021916908373ffffffffffffffffffffffffffffffffffffffff1602179055508160039080519060200190610737929190610889565b507f646ae7a97fc2436fb6794e640177b154a6d199a9552db8801b4cd3234e715b53816003426040518080602001806020018481526020018381038352868181546001816001161561010002031660029004815260200191508054600181600116156101000203166002900480156107f05780601f106107c5576101008083540402835291602001916107f0565b820191906000526020600020905b8154815290600101906020018083116107d357829003601f168201915b50508381038252858181546001816001161561010002031660029004815260200191508054600181600116156101000203166002900480156108735780601f1061084857610100808354040283529160200191610873565b820191906000526020600020905b81548152906001019060200180831161085657829003601f168201915b50509550505050505060405180910390a1505050565b828054600181600116156101000203166002900490600052602060002090601f016020900481019282601f106108ca57805160ff19168380011785556108f8565b828001600101855582156108f8579182015b828111156108f75782518255916020019190600101906108dc565b5b5090506109059190610909565b5090565b61092b91905b8082111561092757600081600090555060010161090f565b5090565b905600a165627a7a7230582094dbbc24ff7b25afbc51d8560d2dc7b95cc96bdf736936d9a0725accaec3058a0029a165627a7a72305820deed92fe4213f52b54ba7a21c289f1ff45eede3f2cd3bed29198127ada7b02190029",
  "source": "pragma solidity ^0.4.4;\r\n\r\nimport \"./Dog.sol\";\r\n\r\n\r\ncontract DogFactory {\r\n    // Maintains all the child contracts\r\n    Dog[] dogs;\r\n    uint maxDogs;\r\n    // Price of the asset\r\n\r\n    // Constructor\r\n    // Creates the child contracts\r\n    function DogFactory(uint8  dogCount) public {\r\n        maxDogs = dogCount;\r\n        /*\r\n        for(uint8 i = 0; i < numParts; i++){\r\n            children.push(new Dog(i, this, \"***\"));\r\n        }\r\n        initialPrice = price;*/\r\n    }\r\n\r\n    function generateDog(string _name, string _descr, uint _weight, uint _height, uint8 _sex, uint8 _type) public{\r\n        dogs.push(new Dog(_name, _descr, _weight, _height, _sex, _type));\r\n    }\r\n\r\n    function getDogCount() public view returns(uint){\r\n        return dogs.length;\r\n    }\r\n\r\n    /*\r\n    // Anyone can pay the price and purchase the asset\r\n\r\n    function  purchase(bytes32 name) payable public {\r\n\r\n        if(msg.value < initialPrice) revert();\r\n\r\n        // Look for available asset i.e., one that is not sold yet\r\n        for(uint8 i = 0; i < children.length; i++){\r\n            // Check if contract factoy is the owner\r\n            if(children[i].isOwner(this)){\r\n                children[i].transferOwnership(msg.sender, name);\r\n                return;\r\n            }\r\n        }\r\n        // No more assets available - so throw an exception\r\n        revert();\r\n    }\r\n\r\n\r\n\r\n    // Returns the information about the child contract at specified index\r\n    function  getInfo(uint8 childIndex) public constant returns(uint8, address, bytes32){\r\n        // Simply return the values\r\n        return (children[childIndex].identity(),children[childIndex].owner(),children[childIndex].name());\r\n    }\r\n\r\n    // Returns the child contract address\r\n    function  getDogContractAddress(uint8 childIndex) public view returns (address){\r\n        return address(children[childIndex]);\r\n    }\r\n\r\n    // Returns name of the owner based on the child index\r\n    function  getOwnerName(uint8 childIndex) public constant returns(bytes32){\r\n        bytes32  namer = children[childIndex].name();\r\n        return namer;\r\n    }\r\n    // Returns the count of the children\r\n    function  getChildrenCount() public constant returns (uint){\r\n        return children.length;\r\n    }\r\n    */\r\n  \r\n}\r\n",
  "sourcePath": "/home/albert/DEV/ethereum/Decentralized_Application_Design/Truffle/DogBidding/contracts/DogFactory.sol",
  "compiler": {
    "name": "solc",
    "version": "0.4.23+commit.124ca40d.Emscripten.clang"
  },
  "schemaVersion": "2.0.0",
  "updatedAt": "2018-05-06T09:49:43.265Z"
}